{
  "_format": "hh-sol-artifact-1",
  "contractName": "Trade",
  "sourceName": "contracts/Trade.sol",
  "abi": [
    {
      "inputs": [],
      "stateMutability": "nonpayable",
      "type": "constructor"
    },
    {
      "inputs": [
        {
          "internalType": "address",
          "name": "sender",
          "type": "address"
        },
        {
          "internalType": "uint256",
          "name": "amountReceived",
          "type": "uint256"
        }
      ],
      "name": "createTrade",
      "outputs": [],
      "stateMutability": "nonpayable",
      "type": "function"
    },
    {
      "inputs": [
        {
          "internalType": "uint256",
          "name": "tradeIdReceived",
          "type": "uint256"
        }
      ],
      "name": "getTradeById",
      "outputs": [
        {
          "internalType": "uint256",
          "name": "tradeId",
          "type": "uint256"
        },
        {
          "internalType": "address",
          "name": "from",
          "type": "address"
        },
        {
          "internalType": "address",
          "name": "to",
          "type": "address"
        },
        {
          "internalType": "uint256",
          "name": "amount",
          "type": "uint256"
        },
        {
          "internalType": "bool",
          "name": "status",
          "type": "bool"
        },
        {
          "internalType": "uint256",
          "name": "timestamp",
          "type": "uint256"
        }
      ],
      "stateMutability": "view",
      "type": "function"
    },
    {
      "inputs": [],
      "name": "listAllTrades",
      "outputs": [
        {
          "components": [
            {
              "internalType": "uint256",
              "name": "tradeId",
              "type": "uint256"
            },
            {
              "internalType": "address",
              "name": "from",
              "type": "address"
            },
            {
              "internalType": "address",
              "name": "to",
              "type": "address"
            },
            {
              "internalType": "uint256",
              "name": "amount",
              "type": "uint256"
            },
            {
              "internalType": "bool",
              "name": "status",
              "type": "bool"
            },
            {
              "internalType": "uint256",
              "name": "timestamp",
              "type": "uint256"
            }
          ],
          "internalType": "struct Trade.TradeStruct[]",
          "name": "",
          "type": "tuple[]"
        }
      ],
      "stateMutability": "view",
      "type": "function"
    },
    {
      "inputs": [
        {
          "internalType": "uint256",
          "name": "tradeIdReceivedSent",
          "type": "uint256"
        }
      ],
      "name": "settleTrade",
      "outputs": [],
      "stateMutability": "nonpayable",
      "type": "function"
    }
  ],
  "bytecode": "0x608060405234801561001057600080fd5b506001600281905550610c49806100286000396000f3fe608060405234801561001057600080fd5b506004361061004c5760003560e01c80630c98f22e146100515780634e98d09e1461006d578063726666841461008b57806373422d93146100c0575b600080fd5b61006b6004803603810190610066919061082a565b6100dc565b005b61007561037e565b60405161008291906109cd565b60405180910390f35b6100a560048036038101906100a091906109ef565b6104c2565b6040516100b796959493929190610a49565b60405180910390f35b6100da60048036038101906100d591906109ef565b610605565b005b6000810361011f576040517f08c379a000000000000000000000000000000000000000000000000000000000815260040161011690610b2d565b60405180910390fd5b60006040518060c0016040528060025481526020013373ffffffffffffffffffffffffffffffffffffffff1681526020018473ffffffffffffffffffffffffffffffffffffffff1681526020018381526020016000151581526020014281525090508060008060025481526020019081526020016000206000820151816000015560208201518160010160006101000a81548173ffffffffffffffffffffffffffffffffffffffff021916908373ffffffffffffffffffffffffffffffffffffffff16021790555060408201518160020160006101000a81548173ffffffffffffffffffffffffffffffffffffffff021916908373ffffffffffffffffffffffffffffffffffffffff1602179055506060820151816003015560808201518160040160006101000a81548160ff02191690831515021790555060a0820151816005015590505060018190806001815401808255809150506001900390600052602060002090600602016000909190919091506000820151816000015560208201518160010160006101000a81548173ffffffffffffffffffffffffffffffffffffffff021916908373ffffffffffffffffffffffffffffffffffffffff16021790555060408201518160020160006101000a81548173ffffffffffffffffffffffffffffffffffffffff021916908373ffffffffffffffffffffffffffffffffffffffff1602179055506060820151816003015560808201518160040160006101000a81548160ff02191690831515021790555060a0820151816005015550506001600260008282546103729190610b7c565b92505081905550505050565b60606001805480602002602001604051908101604052809291908181526020016000905b828210156104b957838290600052602060002090600602016040518060c0016040529081600082015481526020016001820160009054906101000a900473ffffffffffffffffffffffffffffffffffffffff1673ffffffffffffffffffffffffffffffffffffffff1673ffffffffffffffffffffffffffffffffffffffff1681526020016002820160009054906101000a900473ffffffffffffffffffffffffffffffffffffffff1673ffffffffffffffffffffffffffffffffffffffff1673ffffffffffffffffffffffffffffffffffffffff168152602001600382015481526020016004820160009054906101000a900460ff16151515158152602001600582015481525050815260200190600101906103a2565b50505050905090565b60008060008060008060008060008981526020019081526020016000206040518060c0016040529081600082015481526020016001820160009054906101000a900473ffffffffffffffffffffffffffffffffffffffff1673ffffffffffffffffffffffffffffffffffffffff1673ffffffffffffffffffffffffffffffffffffffff1681526020016002820160009054906101000a900473ffffffffffffffffffffffffffffffffffffffff1673ffffffffffffffffffffffffffffffffffffffff1673ffffffffffffffffffffffffffffffffffffffff168152602001600382015481526020016004820160009054906101000a900460ff16151515158152602001600582015481525050905080600001519650806020015195508060400151945080606001519350806080015192508060a0015191505091939550919395565b600160008083815260200190815260200160002060040160006101000a81548160ff021916908315150217905550600080828152602001908152602001600020600180836106539190610bb0565b8154811061066457610663610be4565b5b9060005260206000209060060201600082015481600001556001820160009054906101000a900473ffffffffffffffffffffffffffffffffffffffff168160010160006101000a81548173ffffffffffffffffffffffffffffffffffffffff021916908373ffffffffffffffffffffffffffffffffffffffff1602179055506002820160009054906101000a900473ffffffffffffffffffffffffffffffffffffffff168160020160006101000a81548173ffffffffffffffffffffffffffffffffffffffff021916908373ffffffffffffffffffffffffffffffffffffffff160217905550600382015481600301556004820160009054906101000a900460ff168160040160006101000a81548160ff0219169083151502179055506005820154816005015590505050565b600080fd5b600073ffffffffffffffffffffffffffffffffffffffff82169050919050565b60006107c182610796565b9050919050565b6107d1816107b6565b81146107dc57600080fd5b50565b6000813590506107ee816107c8565b92915050565b6000819050919050565b610807816107f4565b811461081257600080fd5b50565b600081359050610824816107fe565b92915050565b6000806040838503121561084157610840610791565b5b600061084f858286016107df565b925050602061086085828601610815565b9150509250929050565b600081519050919050565b600082825260208201905092915050565b6000819050602082019050919050565b61089f816107f4565b82525050565b6108ae816107b6565b82525050565b60008115159050919050565b6108c9816108b4565b82525050565b60c0820160008201516108e56000850182610896565b5060208201516108f860208501826108a5565b50604082015161090b60408501826108a5565b50606082015161091e6060850182610896565b50608082015161093160808501826108c0565b5060a082015161094460a0850182610896565b50505050565b600061095683836108cf565b60c08301905092915050565b6000602082019050919050565b600061097a8261086a565b6109848185610875565b935061098f83610886565b8060005b838110156109c05781516109a7888261094a565b97506109b283610962565b925050600181019050610993565b5085935050505092915050565b600060208201905081810360008301526109e7818461096f565b905092915050565b600060208284031215610a0557610a04610791565b5b6000610a1384828501610815565b91505092915050565b610a25816107f4565b82525050565b610a34816107b6565b82525050565b610a43816108b4565b82525050565b600060c082019050610a5e6000830189610a1c565b610a6b6020830188610a2b565b610a786040830187610a2b565b610a856060830186610a1c565b610a926080830185610a3a565b610a9f60a0830184610a1c565b979650505050505050565b600082825260208201905092915050565b7f506c6561736520656e74657220612076616c756520677265617465722074686160008201527f6e20300000000000000000000000000000000000000000000000000000000000602082015250565b6000610b17602383610aaa565b9150610b2282610abb565b604082019050919050565b60006020820190508181036000830152610b4681610b0a565b9050919050565b7f4e487b7100000000000000000000000000000000000000000000000000000000600052601160045260246000fd5b6000610b87826107f4565b9150610b92836107f4565b9250828201905080821115610baa57610ba9610b4d565b5b92915050565b6000610bbb826107f4565b9150610bc6836107f4565b9250828203905081811115610bde57610bdd610b4d565b5b92915050565b7f4e487b7100000000000000000000000000000000000000000000000000000000600052603260045260246000fdfea2646970667358221220a6b6c0fe4289d958e86a5e04d8d5a4622c5a4b9acf18fe52033e6c19fd5bec8764736f6c63430008110033",
  "linkReferences": {},
  "deployedLinkReferences": {}
}