{
  "_format": "hh-sol-artifact-1",
  "contractName": "Trade",
  "sourceName": "contracts/Trade.sol",
  "abi": [
    {
      "inputs": [],
      "stateMutability": "nonpayable",
      "type": "constructor"
    },
    {
      "inputs": [
        {
          "internalType": "address",
          "name": "sender",
          "type": "address"
        },
        {
          "internalType": "uint256",
          "name": "amountReceived",
          "type": "uint256"
        }
      ],
      "name": "createTrade",
      "outputs": [],
      "stateMutability": "nonpayable",
      "type": "function"
    },
    {
      "inputs": [
        {
          "internalType": "uint256",
          "name": "tradeIdReceived",
          "type": "uint256"
        }
      ],
      "name": "getTradeById",
      "outputs": [
        {
          "internalType": "uint256",
          "name": "tradeId",
          "type": "uint256"
        },
        {
          "internalType": "address",
          "name": "from",
          "type": "address"
        },
        {
          "internalType": "address",
          "name": "to",
          "type": "address"
        },
        {
          "internalType": "uint256",
          "name": "amount",
          "type": "uint256"
        },
        {
          "internalType": "bool",
          "name": "status",
          "type": "bool"
        },
        {
          "internalType": "uint256",
          "name": "timestamp",
          "type": "uint256"
        }
      ],
      "stateMutability": "view",
      "type": "function"
    },
    {
      "inputs": [],
      "name": "listAllTrades",
      "outputs": [
        {
          "components": [
            {
              "internalType": "uint256",
              "name": "tradeId",
              "type": "uint256"
            },
            {
              "internalType": "address",
              "name": "from",
              "type": "address"
            },
            {
              "internalType": "address",
              "name": "to",
              "type": "address"
            },
            {
              "internalType": "uint256",
              "name": "amount",
              "type": "uint256"
            },
            {
              "internalType": "bool",
              "name": "status",
              "type": "bool"
            },
            {
              "internalType": "uint256",
              "name": "timestamp",
              "type": "uint256"
            }
          ],
          "internalType": "struct Trade.TradeStruct[]",
          "name": "",
          "type": "tuple[]"
        }
      ],
      "stateMutability": "view",
      "type": "function"
    },
    {
      "inputs": [],
      "name": "retrunLatest",
      "outputs": [
        {
          "internalType": "uint256",
          "name": "send",
          "type": "uint256"
        }
      ],
      "stateMutability": "view",
      "type": "function"
    },
    {
      "inputs": [
        {
          "internalType": "uint256",
          "name": "tradeIdReceived",
          "type": "uint256"
        }
      ],
      "name": "settleTrade",
      "outputs": [],
      "stateMutability": "nonpayable",
      "type": "function"
    }
  ],
  "bytecode": "0x608060405234801561001057600080fd5b506001600281905550610f52806100286000396000f3fe608060405234801561001057600080fd5b50600436106100575760003560e01c8063016256d31461005c5780630c98f22e1461007a5780634e98d09e1461009657806372666684146100b457806373422d93146100e9575b600080fd5b610064610105565b604051610071919061099a565b60405180910390f35b610094600480360381019061008f9190610a44565b61011b565b005b61009e6103bd565b6040516100ab9190610be7565b60405180910390f35b6100ce60048036038101906100c99190610c09565b610501565b6040516100e096959493929190610c54565b60405180910390f35b61010360048036038101906100fe9190610c09565b6106cb565b005b600060016002546101169190610ce4565b905090565b6000811161015e576040517f08c379a000000000000000000000000000000000000000000000000000000000815260040161015590610d9b565b60405180910390fd5b60006040518060c0016040528060025481526020013373ffffffffffffffffffffffffffffffffffffffff1681526020018473ffffffffffffffffffffffffffffffffffffffff1681526020018381526020016000151581526020014281525090508060008060025481526020019081526020016000206000820151816000015560208201518160010160006101000a81548173ffffffffffffffffffffffffffffffffffffffff021916908373ffffffffffffffffffffffffffffffffffffffff16021790555060408201518160020160006101000a81548173ffffffffffffffffffffffffffffffffffffffff021916908373ffffffffffffffffffffffffffffffffffffffff1602179055506060820151816003015560808201518160040160006101000a81548160ff02191690831515021790555060a0820151816005015590505060018190806001815401808255809150506001900390600052602060002090600602016000909190919091506000820151816000015560208201518160010160006101000a81548173ffffffffffffffffffffffffffffffffffffffff021916908373ffffffffffffffffffffffffffffffffffffffff16021790555060408201518160020160006101000a81548173ffffffffffffffffffffffffffffffffffffffff021916908373ffffffffffffffffffffffffffffffffffffffff1602179055506060820151816003015560808201518160040160006101000a81548160ff02191690831515021790555060a0820151816005015550506001600260008282546103b19190610dbb565b92505081905550505050565b60606001805480602002602001604051908101604052809291908181526020016000905b828210156104f857838290600052602060002090600602016040518060c0016040529081600082015481526020016001820160009054906101000a900473ffffffffffffffffffffffffffffffffffffffff1673ffffffffffffffffffffffffffffffffffffffff1673ffffffffffffffffffffffffffffffffffffffff1681526020016002820160009054906101000a900473ffffffffffffffffffffffffffffffffffffffff1673ffffffffffffffffffffffffffffffffffffffff1673ffffffffffffffffffffffffffffffffffffffff168152602001600382015481526020016004820160009054906101000a900460ff16151515158152602001600582015481525050815260200190600101906103e1565b50505050905090565b6000806000806000806000871161054d576040517f08c379a000000000000000000000000000000000000000000000000000000000815260040161054490610e3b565b60405180910390fd5b6002548710610591576040517f08c379a000000000000000000000000000000000000000000000000000000000815260040161058890610e3b565b60405180910390fd5b60008060008981526020019081526020016000206040518060c0016040529081600082015481526020016001820160009054906101000a900473ffffffffffffffffffffffffffffffffffffffff1673ffffffffffffffffffffffffffffffffffffffff1673ffffffffffffffffffffffffffffffffffffffff1681526020016002820160009054906101000a900473ffffffffffffffffffffffffffffffffffffffff1673ffffffffffffffffffffffffffffffffffffffff1673ffffffffffffffffffffffffffffffffffffffff168152602001600382015481526020016004820160009054906101000a900460ff16151515158152602001600582015481525050905080600001519650806020015195508060400151945080606001519350806080015192508060a0015191505091939550919395565b6000811161070e576040517f08c379a000000000000000000000000000000000000000000000000000000000815260040161070590610e3b565b60405180910390fd5b6002548110610752576040517f08c379a000000000000000000000000000000000000000000000000000000000815260040161074990610e3b565b60405180910390fd5b3373ffffffffffffffffffffffffffffffffffffffff1660008083815260200190815260200160002060010160009054906101000a900473ffffffffffffffffffffffffffffffffffffffff1673ffffffffffffffffffffffffffffffffffffffff16146107f5576040517f08c379a00000000000000000000000000000000000000000000000000000000081526004016107ec90610ecd565b60405180910390fd5b600160008083815260200190815260200160002060040160006101000a81548160ff021916908315150217905550600080828152602001908152602001600020600180836108439190610ce4565b8154811061085457610853610eed565b5b9060005260206000209060060201600082015481600001556001820160009054906101000a900473ffffffffffffffffffffffffffffffffffffffff168160010160006101000a81548173ffffffffffffffffffffffffffffffffffffffff021916908373ffffffffffffffffffffffffffffffffffffffff1602179055506002820160009054906101000a900473ffffffffffffffffffffffffffffffffffffffff168160020160006101000a81548173ffffffffffffffffffffffffffffffffffffffff021916908373ffffffffffffffffffffffffffffffffffffffff160217905550600382015481600301556004820160009054906101000a900460ff168160040160006101000a81548160ff0219169083151502179055506005820154816005015590505050565b6000819050919050565b61099481610981565b82525050565b60006020820190506109af600083018461098b565b92915050565b600080fd5b600073ffffffffffffffffffffffffffffffffffffffff82169050919050565b60006109e5826109ba565b9050919050565b6109f5816109da565b8114610a0057600080fd5b50565b600081359050610a12816109ec565b92915050565b610a2181610981565b8114610a2c57600080fd5b50565b600081359050610a3e81610a18565b92915050565b60008060408385031215610a5b57610a5a6109b5565b5b6000610a6985828601610a03565b9250506020610a7a85828601610a2f565b9150509250929050565b600081519050919050565b600082825260208201905092915050565b6000819050602082019050919050565b610ab981610981565b82525050565b610ac8816109da565b82525050565b60008115159050919050565b610ae381610ace565b82525050565b60c082016000820151610aff6000850182610ab0565b506020820151610b126020850182610abf565b506040820151610b256040850182610abf565b506060820151610b386060850182610ab0565b506080820151610b4b6080850182610ada565b5060a0820151610b5e60a0850182610ab0565b50505050565b6000610b708383610ae9565b60c08301905092915050565b6000602082019050919050565b6000610b9482610a84565b610b9e8185610a8f565b9350610ba983610aa0565b8060005b83811015610bda578151610bc18882610b64565b9750610bcc83610b7c565b925050600181019050610bad565b5085935050505092915050565b60006020820190508181036000830152610c018184610b89565b905092915050565b600060208284031215610c1f57610c1e6109b5565b5b6000610c2d84828501610a2f565b91505092915050565b610c3f816109da565b82525050565b610c4e81610ace565b82525050565b600060c082019050610c69600083018961098b565b610c766020830188610c36565b610c836040830187610c36565b610c90606083018661098b565b610c9d6080830185610c45565b610caa60a083018461098b565b979650505050505050565b7f4e487b7100000000000000000000000000000000000000000000000000000000600052601160045260246000fd5b6000610cef82610981565b9150610cfa83610981565b9250828203905081811115610d1257610d11610cb5565b5b92915050565b600082825260208201905092915050565b7f506c6561736520656e74657220612076616c756520677265617465722074686160008201527f6e20300000000000000000000000000000000000000000000000000000000000602082015250565b6000610d85602383610d18565b9150610d9082610d29565b604082019050919050565b60006020820190508181036000830152610db481610d78565b9050919050565b6000610dc682610981565b9150610dd183610981565b9250828201905080821115610de957610de8610cb5565b5b92915050565b7f596f757220656e746572642074726164654964206973206e6f742076616c6964600082015250565b6000610e25602083610d18565b9150610e3082610def565b602082019050919050565b60006020820190508181036000830152610e5481610e18565b9050919050565b7f596f7520617265206e6f7420617574686f72697a656420746f20736574746c6560008201527f2074686973207472616465000000000000000000000000000000000000000000602082015250565b6000610eb7602b83610d18565b9150610ec282610e5b565b604082019050919050565b60006020820190508181036000830152610ee681610eaa565b9050919050565b7f4e487b7100000000000000000000000000000000000000000000000000000000600052603260045260246000fdfea2646970667358221220461eb248a85494b801a3298cef80d38b5f46be984e29f913267d94480f35bf0564736f6c63430008110033",
  "linkReferences": {},
  "deployedLinkReferences": {}
}