{
  "_format": "hh-sol-artifact-1",
  "contractName": "Trade",
  "sourceName": "contracts/Trade.sol",
  "abi": [
    {
      "inputs": [],
      "stateMutability": "nonpayable",
      "type": "constructor"
    },
    {
      "inputs": [
        {
          "internalType": "address",
          "name": "sender",
          "type": "address"
        },
        {
          "internalType": "uint256",
          "name": "amountReceived",
          "type": "uint256"
        }
      ],
      "name": "createTrade",
      "outputs": [],
      "stateMutability": "nonpayable",
      "type": "function"
    },
    {
      "inputs": [
        {
          "internalType": "uint256",
          "name": "tradeIdReceived",
          "type": "uint256"
        }
      ],
      "name": "getTradeById",
      "outputs": [
        {
          "internalType": "uint256",
          "name": "tradeId",
          "type": "uint256"
        },
        {
          "internalType": "address",
          "name": "from",
          "type": "address"
        },
        {
          "internalType": "address",
          "name": "to",
          "type": "address"
        },
        {
          "internalType": "uint256",
          "name": "amount",
          "type": "uint256"
        },
        {
          "internalType": "bool",
          "name": "status",
          "type": "bool"
        },
        {
          "internalType": "uint256",
          "name": "timestamp",
          "type": "uint256"
        }
      ],
      "stateMutability": "view",
      "type": "function"
    },
    {
      "inputs": [],
      "name": "listAllTrades",
      "outputs": [
        {
          "components": [
            {
              "internalType": "uint256",
              "name": "tradeId",
              "type": "uint256"
            },
            {
              "internalType": "address",
              "name": "from",
              "type": "address"
            },
            {
              "internalType": "address",
              "name": "to",
              "type": "address"
            },
            {
              "internalType": "uint256",
              "name": "amount",
              "type": "uint256"
            },
            {
              "internalType": "bool",
              "name": "status",
              "type": "bool"
            },
            {
              "internalType": "uint256",
              "name": "timestamp",
              "type": "uint256"
            }
          ],
          "internalType": "struct Trade.TradeStruct[]",
          "name": "",
          "type": "tuple[]"
        }
      ],
      "stateMutability": "view",
      "type": "function"
    },
    {
      "inputs": [
        {
          "internalType": "uint256",
          "name": "tradeIdReceivedSent",
          "type": "uint256"
        }
      ],
      "name": "settleTrade",
      "outputs": [],
      "stateMutability": "nonpayable",
      "type": "function"
    }
  ],
  "bytecode": "0x608060405234801561001057600080fd5b506001600281905550610d3c806100286000396000f3fe608060405234801561001057600080fd5b506004361061004c5760003560e01c80630c98f22e146100515780634e98d09e1461006d578063726666841461008b57806373422d93146100c0575b600080fd5b61006b600480360381019061006691906108b1565b6100dc565b005b61007561037e565b6040516100829190610a54565b60405180910390f35b6100a560048036038101906100a09190610a76565b6104c2565b6040516100b796959493929190610ad0565b60405180910390f35b6100da60048036038101906100d59190610a76565b61068c565b005b6000811161011f576040517f08c379a000000000000000000000000000000000000000000000000000000000815260040161011690610bb4565b60405180910390fd5b60006040518060c0016040528060025481526020013373ffffffffffffffffffffffffffffffffffffffff1681526020018473ffffffffffffffffffffffffffffffffffffffff1681526020018381526020016000151581526020014281525090508060008060025481526020019081526020016000206000820151816000015560208201518160010160006101000a81548173ffffffffffffffffffffffffffffffffffffffff021916908373ffffffffffffffffffffffffffffffffffffffff16021790555060408201518160020160006101000a81548173ffffffffffffffffffffffffffffffffffffffff021916908373ffffffffffffffffffffffffffffffffffffffff1602179055506060820151816003015560808201518160040160006101000a81548160ff02191690831515021790555060a0820151816005015590505060018190806001815401808255809150506001900390600052602060002090600602016000909190919091506000820151816000015560208201518160010160006101000a81548173ffffffffffffffffffffffffffffffffffffffff021916908373ffffffffffffffffffffffffffffffffffffffff16021790555060408201518160020160006101000a81548173ffffffffffffffffffffffffffffffffffffffff021916908373ffffffffffffffffffffffffffffffffffffffff1602179055506060820151816003015560808201518160040160006101000a81548160ff02191690831515021790555060a0820151816005015550506001600260008282546103729190610c03565b92505081905550505050565b60606001805480602002602001604051908101604052809291908181526020016000905b828210156104b957838290600052602060002090600602016040518060c0016040529081600082015481526020016001820160009054906101000a900473ffffffffffffffffffffffffffffffffffffffff1673ffffffffffffffffffffffffffffffffffffffff1673ffffffffffffffffffffffffffffffffffffffff1681526020016002820160009054906101000a900473ffffffffffffffffffffffffffffffffffffffff1673ffffffffffffffffffffffffffffffffffffffff1673ffffffffffffffffffffffffffffffffffffffff168152602001600382015481526020016004820160009054906101000a900460ff16151515158152602001600582015481525050815260200190600101906103a2565b50505050905090565b6000806000806000806000871161050e576040517f08c379a000000000000000000000000000000000000000000000000000000000815260040161050590610c83565b60405180910390fd5b6002548710610552576040517f08c379a000000000000000000000000000000000000000000000000000000000815260040161054990610c83565b60405180910390fd5b60008060008981526020019081526020016000206040518060c0016040529081600082015481526020016001820160009054906101000a900473ffffffffffffffffffffffffffffffffffffffff1673ffffffffffffffffffffffffffffffffffffffff1673ffffffffffffffffffffffffffffffffffffffff1681526020016002820160009054906101000a900473ffffffffffffffffffffffffffffffffffffffff1673ffffffffffffffffffffffffffffffffffffffff1673ffffffffffffffffffffffffffffffffffffffff168152602001600382015481526020016004820160009054906101000a900460ff16151515158152602001600582015481525050905080600001519650806020015195508060400151945080606001519350806080015192508060a0015191505091939550919395565b600160008083815260200190815260200160002060040160006101000a81548160ff021916908315150217905550600080828152602001908152602001600020600180836106da9190610ca3565b815481106106eb576106ea610cd7565b5b9060005260206000209060060201600082015481600001556001820160009054906101000a900473ffffffffffffffffffffffffffffffffffffffff168160010160006101000a81548173ffffffffffffffffffffffffffffffffffffffff021916908373ffffffffffffffffffffffffffffffffffffffff1602179055506002820160009054906101000a900473ffffffffffffffffffffffffffffffffffffffff168160020160006101000a81548173ffffffffffffffffffffffffffffffffffffffff021916908373ffffffffffffffffffffffffffffffffffffffff160217905550600382015481600301556004820160009054906101000a900460ff168160040160006101000a81548160ff0219169083151502179055506005820154816005015590505050565b600080fd5b600073ffffffffffffffffffffffffffffffffffffffff82169050919050565b60006108488261081d565b9050919050565b6108588161083d565b811461086357600080fd5b50565b6000813590506108758161084f565b92915050565b6000819050919050565b61088e8161087b565b811461089957600080fd5b50565b6000813590506108ab81610885565b92915050565b600080604083850312156108c8576108c7610818565b5b60006108d685828601610866565b92505060206108e78582860161089c565b9150509250929050565b600081519050919050565b600082825260208201905092915050565b6000819050602082019050919050565b6109268161087b565b82525050565b6109358161083d565b82525050565b60008115159050919050565b6109508161093b565b82525050565b60c08201600082015161096c600085018261091d565b50602082015161097f602085018261092c565b506040820151610992604085018261092c565b5060608201516109a5606085018261091d565b5060808201516109b86080850182610947565b5060a08201516109cb60a085018261091d565b50505050565b60006109dd8383610956565b60c08301905092915050565b6000602082019050919050565b6000610a01826108f1565b610a0b81856108fc565b9350610a168361090d565b8060005b83811015610a47578151610a2e88826109d1565b9750610a39836109e9565b925050600181019050610a1a565b5085935050505092915050565b60006020820190508181036000830152610a6e81846109f6565b905092915050565b600060208284031215610a8c57610a8b610818565b5b6000610a9a8482850161089c565b91505092915050565b610aac8161087b565b82525050565b610abb8161083d565b82525050565b610aca8161093b565b82525050565b600060c082019050610ae56000830189610aa3565b610af26020830188610ab2565b610aff6040830187610ab2565b610b0c6060830186610aa3565b610b196080830185610ac1565b610b2660a0830184610aa3565b979650505050505050565b600082825260208201905092915050565b7f506c6561736520656e74657220612076616c756520677265617465722074686160008201527f6e20300000000000000000000000000000000000000000000000000000000000602082015250565b6000610b9e602383610b31565b9150610ba982610b42565b604082019050919050565b60006020820190508181036000830152610bcd81610b91565b9050919050565b7f4e487b7100000000000000000000000000000000000000000000000000000000600052601160045260246000fd5b6000610c0e8261087b565b9150610c198361087b565b9250828201905080821115610c3157610c30610bd4565b5b92915050565b7f596f757220656e746572642074726164654964206973206e6f742076616c6964600082015250565b6000610c6d602083610b31565b9150610c7882610c37565b602082019050919050565b60006020820190508181036000830152610c9c81610c60565b9050919050565b6000610cae8261087b565b9150610cb98361087b565b9250828203905081811115610cd157610cd0610bd4565b5b92915050565b7f4e487b7100000000000000000000000000000000000000000000000000000000600052603260045260246000fdfea2646970667358221220a1dac2a18e70d80cdbcbcef711c32a60b0be7b422a7e5b4ae652f453f13ca7df64736f6c63430008110033",
  "linkReferences": {},
  "deployedLinkReferences": {}
}